{
  "contractName": "certify",
  "abi": [
    {
      "constant": true,
      "inputs": [
        {
          "name": "",
          "type": "address"
        }
      ],
      "name": "list",
      "outputs": [
        {
          "name": "count",
          "type": "uint256"
        }
      ],
      "payable": false,
      "stateMutability": "view",
      "type": "function"
    },
    {
      "constant": false,
      "inputs": [
        {
          "name": "addr",
          "type": "address"
        },
        {
          "name": "data",
          "type": "string"
        }
      ],
      "name": "insert_certificate",
      "outputs": [],
      "payable": false,
      "stateMutability": "nonpayable",
      "type": "function"
    },
    {
      "constant": false,
      "inputs": [
        {
          "name": "anything",
          "type": "string"
        }
      ],
      "name": "whatever",
      "outputs": [
        {
          "name": "",
          "type": "string"
        }
      ],
      "payable": false,
      "stateMutability": "nonpayable",
      "type": "function"
    }
  ],
  "bytecode": "0x608060405234801561001057600080fd5b506104b1806100206000396000f300608060405260043610610057576000357c0100000000000000000000000000000000000000000000000000000000900463ffffffff1680636dbd69fd1461005c578063bb032a66146100e5578063cd6e1bca1461013c575b600080fd5b34801561006857600080fd5b506100e3600480360381019080803573ffffffffffffffffffffffffffffffffffffffff169060200190929190803590602001908201803590602001908080601f016020809104026020016040519081016040528093929190818152602001838380828437820191505050505050919291929050505061021e565b005b3480156100f157600080fd5b50610126600480360381019080803573ffffffffffffffffffffffffffffffffffffffff1690602001909291905050506103b8565b6040518082815260200191505060405180910390f35b34801561014857600080fd5b506101a3600480360381019080803590602001908201803590602001908080601f01602080910402602001604051908101604052809392919081815260200183838082843782019150505050505091929192905050506103d6565b6040518080602001828103825283818151815260200191508051906020019080838360005b838110156101e35780820151818401526020810190506101c8565b50505050905090810190601f1680156102105780820380516001836020036101000a031916815260200191505b509250505060405180910390f35b60008060008473ffffffffffffffffffffffffffffffffffffffff1673ffffffffffffffffffffffffffffffffffffffff168152602001908152602001600020600a01549050336000808573ffffffffffffffffffffffffffffffffffffffff1673ffffffffffffffffffffffffffffffffffffffff168152602001908152602001600020600001826005811015156102b357fe5b6002020160000160006101000a81548173ffffffffffffffffffffffffffffffffffffffff021916908373ffffffffffffffffffffffffffffffffffffffff160217905550816000808573ffffffffffffffffffffffffffffffffffffffff1673ffffffffffffffffffffffffffffffffffffffff1681526020019081526020016000206000018260058110151561034757fe5b6002020160010190805190602001906103619291906103e0565b506000808473ffffffffffffffffffffffffffffffffffffffff1673ffffffffffffffffffffffffffffffffffffffff168152602001908152602001600020600a0160008154809291906001019190505550505050565b600060205280600052604060002060009150905080600a0154905081565b6060819050919050565b828054600181600116156101000203166002900490600052602060002090601f016020900481019282601f1061042157805160ff191683800117855561044f565b8280016001018555821561044f579182015b8281111561044e578251825591602001919060010190610433565b5b50905061045c9190610460565b5090565b61048291905b8082111561047e576000816000905550600101610466565b5090565b905600a165627a7a7230582045eb749c06c08f59649b89386b560292843661f0ae17f88390c5395ebe4ac44a0029",
  "source": "pragma solidity 0.4.24;\n\ncontract certify {\nstruct certificate {\naddress athourity_address;\nstring certificate_data;\n}\nstruct user_certificate {\ncertificate[5] certificates;\nuint count ;\n\n}\n\nmapping (address => user_certificate) public list;\nfunction insert_certificate(address addr, string data) public {\nuint count=list[addr].count;\nlist[addr].certificates[count].athourity_address=msg.sender;\nlist[addr].certificates[count].certificate_data=data;\nlist[addr].count++;\n}\nfunction whatever(string anything) public returns (string){\n\treturn anything;\n}\n}",
  "sourcePath": "D:\\lalalala\\contracts\\Certificate.sol",
  "compiler": {
    "name": "solc",
    "version": "0.4.24+commit.e67f0147.Emscripten.clang"
  },
  "schemaVersion": "2.0.1",
  "updatedAt": "2018-11-03T20:24:32.720Z"
}